S01A0000524947485470726F6A6563745355444F4B552E73726563BA
S11300000C942A000C943C000C943C000C943C008E
S11300100C943C000C943C000C9417020C943C008F
S11300200C943C000C943C000C943C000C94960200
S11300300C943C000C943C000C943C000C943C004C
S11300400C943C000C943C000C943C000C943C003C
S11300500C943C0011241FBECFE5D4E0DEBFCDBF1D
S113006020E0A0E6B0E001C01D92AE3BB207E1F78C
S11300700E9444040C94CC040C940000CF93DF93AE
S113008000D000D0CDB7DEB79A8389837C836B839D
S113009089819A81FC0110828B819C81FC011082F0
S11300A03DC089819A81FC018081282F30E08B81B9
S11300B09C81FC018081482F50E0C901880F991F61
S11300C0880F991F880F991F820F931F840F951F04
S11300D0805A9F4FFC018081882311F481E025C060
S11300E08B819C81FC01808121E0280F8B819C8184
S11300F0FC0120838B819C81FC018081893088F202
S11301008B819C81FC01108289819A81FC01808110
S113011021E0280F89819A81FC01208389819A81B9
S1130120FC018081893030F380E00F900F900F90B4
S11301300F90DF91CF910895CF93DF93CDB7DEB7C2
S113014028970FB6F894DEBF0FBECDBF8E836F83A2
S1130150488781E089831B821CC08E81282F30E070
S11301608B81482F50E0C901880F991F880F991F70
S1130170880F991F820F931F840F951F805A9F4FDA
S1130180FC0190818885981709F419828B818F5F0F
S11301908B838B81893018F489818823F1F61A8244
S11301A01CC08A81282F30E08F81482F50E0C9017C
S11301B0880F991F880F991F880F991F820F931F0B
S11301C0840F951F805A9F4FFC0190818885981752
S11301D009F419828A818F5F8A838A81893018F4AD
S11301E089818823F1F62F818BEA289F812D1124A0
S11301F0982F9695892F880F890F922F981B8F819E
S1130200891B8B832E818BEA289F812D1124982FA3
S11302109695892F880F890F922F981B8E81891BA1
S11302208A831C821D8231C01D8226C08C81282FA6
S113023030E08A81882F90E0280F391F8D81482F64
S113024050E08B81882F90E0480F591FC901880F17
S1130250991F880F991F880F991F820F931F840F6E
S1130260951F805A9F4FFC0190818885981709F447
S113027019828D818F5F8D838D81833018F48981FC
S11302808823A1F68C818F5F8C838C81833018F452
S11302908981882349F689818823D1F08E81282F8A
S11302A030E08F81482F50E0C901880F991F880FD3
S11302B0991F880F991F820F931F840F951F805ACF
S11302C09F4FFC018081882319F481E090E002C0F3
S11302D080E090E028960FB6F894DEBF0FBECDBF45
S11302E0DF91CF910895CF93DF9300D01F92CDB7C4
S11302F0DEB79E012D5F3F4FCE010296B9010E94E9
S11303003E00882321F08091BB00882311F481E012
S11303104DC08091BC008F5F8093BC0081E08983D5
S11303203CC09B818A814981692F0E949C0088235B
S113033089F18A81282F30E08B81482F50E0C90150
S1130340880F991F880F991F880F991F820F931F79
S1130350840F951F805A9F4F2981FC0120830E949E
S11303607301882311F081E021C08A81282F30E0B5
S11303708B81482F50E0C901880F991F880F991F5E
S1130380880F991F820F931F840F951F805A9F4FC8
S1130390FC01108289818F5F898389818A3008F208
S11303A08091BC0081508093BC0080E00F900F903E
S11303B00F90DF91CF910895CF93DF931F92CDB724
S11303C0DEB7898300008BE290E0FC018081882FF6
S11303D090E080729927892BB1F38CE290E0298117
S11303E0FC01208300000F90DF91CF910895CF93FB
S11303F0DF931F92CDB7DEB78CE290E0FC018081E1
S1130400898389818D3071F08091B900882F90E0C3
S11304108F549F4F2981FC0120838091B9008F5F05
S11304208093B90089810F90DF91CF9108950FB621
S11304300F9200240F931F932F933F934F935F9337
S11304406F937F938F939F93AF93BF93CF93DF93D8
S1130450EF93FF938091BC00803530F088E390E007
S11304602FEFFC01208345C08091BC00863430F01E
S113047088E390E02FE7FC0120833BC08091BC001F
S11304808C3330F088E390E02FE3FC01208331C00B
S11304908091BC00823330F088E390E02FE1FC01CE
S11304A0208327C08091BC00883230F088E390E03C
S11304B02FE0FC0120831DC08091BC008E3130F000
S11304C088E390E027E0FC01208313C08091BC0006
S11304D0843130F088E390E023E0FC01208309C0FC
S11304E08091BC008A3028F088E390E021E0FC0190
S11304F020838DE490E0FC0110828CE490E0FC0108
S11305001082FF91EF91DF91CF91BF91AF919F91B5
S11305108F917F916F915F914F913F912F911F9197
S11305200F910F900FBE0024189500000FB60F9284
S113053000240F931F932F933F934F935F936F93D5
S11305407F938F939F93AF93BF93CF93DF93EF9357
S1130550FF9310E003C00E94F701182F8BE290E094
S1130560FC0180818823BCF31A3009F061C18091B9
S1130570B100813469F48FE40E94DC018BE40E94B1
S1130580DC018DE00E94DC018AE00E94DC0141C1B3
S11305908091B1008334D1F510E01092BC00109228
S11305A0BA001092BD0088E390E0FC01108210E0D4
S11305B000E01DC016C0212F30E0402F50E0C901DB
S11305C0880F991F880F991F880F991F820F931FF7
S11305D0840F951F805A9F4FFC011082802F01E0E9
S11305E0080F093040F300E0812F11E0180F193093
S11305F008F38FE40E94DC018BE40E94DC018DE0AF
S11306000E94DC018AE00E94DC0103C18091B100F8
S11306108E3499F58091B200882F90E09C0121538B
S113062031098091B300882F90E0AC014153510906
S11306308091B40060ED680FC901880F991F880F7D
S1130640991F880F991F820F931F840F951F805A3B
S11306509F4FFC0160838091BC008F5F8093BC003E
S11306608FE40E94DC018BE40E94DC018DE00E9497
S1130670DC018AE00E94DC01CCC08091B1008035AD
S113068081F481E08093BB008FE40E94DC018BE461
S11306900E94DC018DE00E94DC018AE00E94DC0102
S11306A0B8C08091B1008335D1F48EE40E94DC019E
S11306B081E30E94DC0181E30E94DC0180916000FF
S11306C0805D0E94DC018DE00E94DC018AE00E94D2
S11306D0DC011092BA0081E08093BD009AC0809141
S11306E0B100843509F04DC08091BA00893051F4CD
S11306F084E40E94DC018DE00E94DC018AE00E9417
S1130700DC0187C08EE40E94DC018091BA008F5C1A
S11307100E94DC018091BD008F5C0E94DC0180910D
S1130720BA00282F30E08091BD00482F50E0C90165
S1130730880F991F880F991F880F991F820F931F85
S1130740840F951F805A9F4FFC018081805D0E9419
S1130750DC018DE00E94DC018AE00E94DC018091D2
S1130760BD008F5F8093BD008091BD00893009F08A
S113077050C01092BD008091BA008F5F8093BA0080
S113078048C08091B100823479F41092BB008FE4A8
S11307900E94DC018BE40E94DC018DE00E94DC01FC
S11307A08AE00E94DC0135C08091B100843489F56F
S11307B08EE40E94DC018091B2000E94DC018091F1
S11307C0B3000E94DC018091B200882F90E09C016C
S11307D0215331098091B300882F90E0AC0141533B
S11307E05109C901880F991F880F991F880F991FF4
S11307F0820F931F840F951F805A9F4FFC018081A5
S1130800805D0E94DC018DE00E94DC018AE00E9490
S1130810DC011092B90010E009C0812F90E08F54E0
S11308209F4FFC011082812F11E0180F1830A8F39C
S1130830FF91EF91DF91CF91BF91AF919F918F91F4
S11308407F916F915F914F913F912F911F910F91E4
S11308500F900FBE002418950000CF93DF93CDB7FF
S1130860DEB78AE290E028E9FC01208389E290E087
S113087020E4FC01208380E490E026E8FC0120834E
S11308800000DF91CF910895CF93DF9300D0CDB7CF
S1130890DEB71092BC0019820AC08981882F90E0CB
S11308A08F549F4FFC01108289818F5F89838981D6
S11308B0883098F31092B9001092BB001092BA00DD
S11308C01092BD00198220C01A8218C08981282F75
S11308D030E08A81482F50E0C901880F991F880FA2
S11308E0991F880F991F820F931F840F951F805A99
S11308F09F4FFC0110828A818F5F8A838A818930AD
S113090028F389818F5F898389818930E8F287E3BD
S113091090E02FEFFC01208388E390E0FC0110823B
S11309208AE490E020E036E0FC013183208389E50D
S113093090E020E1FC01208378948EE490E024E0B0
S1130940FC0120830E942D0405C087E390E02FEF73
S1130950FC0120838091BB008823B9F30E947301BA
S11309608130B9F48091BB00813051F484E40E9459
S1130970DC018DE00E94DC018AE00E94DC0109C0F8
S113098085E40E94DC018DE00E94DC018AE00E9483
S10F0990DC011092BB00D8CFF894FFCF1C
S9030000FC
